:060000000A128A11142906
:100200008A010A140F3982073F3406345B344F34B5
:1002100066346D347D3407347F34673477347C340E
:1002200039345E3479347134452120212721031378
:1002300083120618372186183E210B1932211929FD
:10024000031383160F178F120F160F1408000313D2
:100250008316811281110115811401140313831275
:10026000322108003C3081000B11850A0800061875
:100270003729A00A200800218700080086183E2997
:10028000A00B2008002187000800031783168801AF
:10029000890103138316850187010614861403134D
:0C02A00083128601850187018801080097
:04400E00C420FF3F8C
:00000001FF
