:060000000A128A11142906
:100200008A010A140F3982073F3406345B344F34B5
:1002100066346D347D3407347F34673477347C340E
:1002200039345E34793471344D2123212A2103136A
:10023000831206183B21861842210B1935212218FA
:10024000192949211929031383160F178F120F1625
:100250000F140800031383168112811101158114F4
:10026000011403138312352108003C3081000B1167
:10027000850AA203080006183B29A00A20080021CD
:100280008700080086184229A00B2008002187005B
:100290000800880A0A30A2000800031783168801A4
:1002A00089010313831685018701061486148801CA
:1002B0000313831286018501870188010A30A20099
:0202C000080034
:04400E00C420FF3F8C
:00000001FF
