:060000000A128A11142906
:100200008A010A140F3982073F3406345B344F34B5
:1002100066346D347D3407347F34673477347C340E
:1002200039345E3479347134582128212F21031355
:10023000831206184021861847210B193A210A30EB
:10024000220203184E2108082002031855211929FB
:10025000031383160F178F120F160F1408000313C2
:100260008316811281110115811401140313831265
:100270003A2108003C3081000B11850AA20A0800CF
:1002800006184029A00A20080021870008008618C7
:100290004729A00B2008002187000800880A081AB7
:1002A000880109100030A200080009148801080024
:1002B00003178316880189010313831685018701BB
:1002C00006148614880189010313831286018501AF
:0C02D0008701880189010030A2000800AD
:04400E00C420FF3F8C
:00000001FF
