:060000000A128A11142906
:100200008A010A140F3982073F3406345B344F34B5
:1002100066346D347D3407347F34673477347C340E
:1002200039345E34793471344E2124212B21031367
:10023000831206183C21861843210B1936210A30F7
:10024000220203184A211929031383160F178F124C
:100250000F160F1408000313831681128111011564
:100260008114011403138312362108003C308100ED
:100270000B11850AA20A080006183C29A00A2008CA
:1002800000218700080086184329A00B20080021C0
:1002900087000800880A0030A200080003178316B0
:1002A00088018901031383168501870106148614CA
:1002B00088010313831286018501870188010030BC
:0402C000A200080090
:04400E00C420FF3F8C
:00000001FF
