:060000000A128A11142906
:100200008A010A140F3982073F3406345B344F34B5
:1002100066346D347D3407347F34673477347C340E
:1002200039345E3479347134462122212921031373
:1002300083120618382186183F210B1D1D293421F1
:10024000850A1929031383160F178F120F160F141F
:100250000800031383168112811101158114011402
:1002600003138312342108003C3081000B11080075
:10027000061C3829A00A2008002187000800861CD7
:100280003F29A00B200800218700080003178316D0
:1002900088018901031383168501870106148614DA
:0E02A00003138312860185018701880108007F
:04400E00C430FF3F7C
:00000001FF
